:020000040800F2
:100000008806002089010008C9030008C103000810
:10001000C503000843020008770D00080000000037
:100020000000000000000000000000006106000861
:1000300063020008000000004905000821080008CC
:10004000A3010008A3010008A3010008A301000800
:10005000A3010008A3010008A3010008A3010008F0
:10006000A3010008A3010008A3010008A3010008E0
:10007000A3010008A3010008A3010008A3010008D0
:10008000A3010008A3010008A3010008A3010008C0
:10009000A3010008A3010008A3010008A3010008B0
:1000A000A3010008A3010008A3010008A3010008A0
:1000B000A3010008A3010008A3010008A301000890
:1000C000A3010008A3010008A3010008A301000880
:1000D000A3010008A3010008C90A0008A301000841
:1000E000A3010008A3010008A301000800F002F822
:1000F00000F03AF80AA090E8000C82448344AAF188
:100100000107DA4501D100F02FF8AFF2090EBAE885
:100110000F0013F0010F18BFFB1A43F0010318473B
:10012000F40C0000140D0000103A24BF78C878C108
:10013000FAD8520724BF30C830C144BF04680C60ED
:10014000704700000023002400250026103A28BF35
:1001500078C1FBD8520728BF30C148BF0B60704739
:100160001FB51FBD10B510BD00F031F81146FFF7E7
:10017000F7FF00F002FE00F04FF803B4FFF7F2FFC4
:1001800003BC00F057F800000948804709480047C1
:10019000FEE7FEE7FEE7FEE7FEE7FEE7FEE7FEE737
:1001A000FEE7FEE704480549054A064B7047000094
:1001B00025080008ED0000088800002088060020BF
:1001C00088020020880200207047704770477546FB
:1001D00000F02CF8AE4605006946534620F00700B3
:1001E000854618B020B5FFF7DDFFBDE820404FF091
:1001F00000064FF000074FF000084FF0000B21F011
:100200000701AC46ACE8C009ACE8C009ACE8C009DD
:10021000ACE8C0098D46704710B50446AFF30080C6
:100220002046BDE81040FFF7A8BF00000048704717
:100230002400002001491820ABBEFEE72600020082
:10024000704700BFFEE710B502460023002004E01F
:10025000145C1C44E3B2441CE0B28842F8DB18464C
:1002600010BD704700B5034603E04FF47A7000F00C
:1002700005F8181EA3F10103F7D100BD00EBC00182
:10028000C9004FF0E0225161002191610521116107
:1002900000BF4FF0E021096901F480310029F8D056
:1002A00004214FF0E022116170472DE9F041024630
:1002B00000250026002000230024002791F803C019
:1002C0000CF00F0591F803C00CF0100CBCF1000FFE
:1002D00003D091F802C04CEA050591F800C0BCF1CA
:1002E000000F31D0146800202BE04FF0010C0CFA05
:1002F00000F3B1F800C00CEA03069E4220D183004F
:100300004FF00F0C0CFA03F7BC4305FA03FC4CEA60
:10031000040491F803C0BCF1280F06D14FF0010C82
:100320000CFA00FCC2F814C00AE091F803C0BCF15A
:10033000480F05D14FF0010C0CFA00FCC2F810C0B8
:10034000401C0828D1D31460B1F800C0BCF1FF0FE5
:1003500034DD546800202EE000F1080C4FF0010855
:1003600008FA0CF3B1F800C00CEA03069E4221D152
:1003700083004FF00F0C0CFA03F7BC4305FA03FCA3
:100380004CEA040491F803C0BCF1280F05D100F138
:10039000080C08FA0CF8C2F8148091F803C0BCF1FC
:1003A000480F07D100F1080C4FF0010808FA0CF8CB
:1003B000C2F81080401C0828CED35460BDE8F081FC
:1003C00000BFFEE700BFFEE77047000070B50021E8
:1003D00000230F22C47804B3154C246804F4E064AD
:1003E000C4F5E064210AC1F10403CA40447804FA68
:1003F00003F184781440214309010E4C0678A1557D
:10040000047804F01F050124AC4005786D11AD009F
:1004100005F1E025C5F8004109E0047804F01F0566
:100420000124AC40044D0678761145F8264070BD95
:100430000CED00E000E400E080E100E000B589B0F0
:100440000121022000F082F80121082000F08EF83E
:100450000121084600F08AF818208DF823000320B7
:10046000ADF820008DF8220008A92148FFF71DFFF4
:100470000020ADF81A00ADF8160044F61F60ADF884
:1004800018004720ADF8140000208DF81C0005A9C5
:10049000184800F0C7FA01A800F0B5FA6020ADF8DE
:1004A00004000020ADF80C000120ADF8060000208B
:1004B000ADF80A0001A90F4800F000FA08210D4824
:1004C00000F04CFA0020ADF80A0001A9094800F03C
:1004D0004FFA0821074800F089FA0121054800F089
:1004E000D1F90121034800F0D9F909B000BD00009D
:1004F000000C01400004004010B50446B4F5487FEC
:1005000002DA4FF4487404E040F69800844200DDBB
:1005100004462146014800F080FA10BD0004004066
:1005200010B50446B4F5487F02DA4FF4487404E08D
:1005300040F69800844200DD04462146014800F060
:100540006EFA10BD000400407047000029B1064A51
:10055000D2690243044BDA6104E0034AD269824360
:10056000014BDA61704700000010024029B1064AD1
:1005700092690243044B9A6104E0034A9269824300
:10058000014B9A61704700000010024030B5002115
:100590000022002400232D4D6D6805F00C0121B1CF
:1005A000042905D0082923D105E0294D056022E062
:1005B000274D05601FE0254D6D6805F47012234D31
:1005C0006D6805F48034022505EB92421CB9214D7B
:1005D000554305600BE01D4D6D6805F400351DB1F8
:1005E0001C4D5543056002E0194D5543056002E07E
:1005F000174D056000BF00BF144D6D6805F0F00198
:100600000909154D6B5C0568DD4045600F4D6D684F
:1006100005F4E061090A104D6B5C4568DD408560BA
:100620000A4D6D6805F46051C90A0B4D6B5C456855
:10063000DD40C560054D6D6805F44041890B074DEF
:100640006B5CC568B5FBF3F5056130BD0010024079
:1006500000127A0000093D00000000201000002078
:10066000704700000146002072B6094A127962B153
:10067000074A12880A80064A52884A80044A127938
:100680000A710022024B1A71012062B67047000005
:100690001400002000B587B001210420FFF766FF99
:1006A00001214804FFF752FF0420ADF8180018207C
:1006B0008DF81B0003208DF81A0006A91C48FFF7CF
:1006C000F4FD0820ADF8180048208DF81B0006A99D
:1006D0001748FFF7EAFD4FF4E13002900020ADF833
:1006E0000C00ADF80E00ADF81000ADF814000C20B1
:1006F000ADF8120002A90F4800F0CCFA012240F236
:1007000025510C4800F0A1FA26208DF804000120A4
:100710008DF805008DF806008DF8070001A8FFF799
:1007200055FE0121034800F05AFA07B000BD000051
:10073000000801400044004010B500F001F810BD71
:100740000CB50020019000903348006840F48030E0
:100750003149086000BF3048006800F40030009064
:100760000198401C0190009818B90198B0F5A06F4D
:10077000F1D12948006800F4003010B10120009048
:1007800001E0002000900098012843D12348006830
:1007900040F01000214908600846006820F003007E
:1007A00008600846006840F0020008601A48406887
:1007B000194948600846406848600846406840F467
:1007C000806048600846406820F47C104860084615
:1007D000406840F4E81048600846006840F08070C7
:1007E000086000BF0C48006800F000700028F9D0D5
:1007F0000948406820F003000749486008464068FF
:1008000040F00200486000BF0348406800F00C0060
:100810000828F9D10CBD0000001002400020024061
:100820007047000010B51348006840F001001149FE
:10083000086008464068104908400E49486008466C
:1008400000680E4908400B4908600846006820F41B
:10085000802008600846406820F4FE0048604FF49D
:100860001F008860FFF768FF4FF0006004490860D0
:1008700010BD0000001002400000FFF8FFFFF6FE70
:1008800008ED00E021B1028842F00102028004E09C
:1008900002884FF6FE731A400280704731B1B0F8FB
:1008A000442042F40042A0F8442005E0B0F844207F
:1008B000C2F30E02A0F844207047000070B5002477
:1008C00000220023058C4FF6FF6635400584028C1C
:1008D0008388848B4FF68F752C404FF6FC752C4027
:1008E0000D882C434FF6FF552A400D894FF6FF76B1
:1008F00006EA05252A434D8806EA05252A43154DB3
:10090000A84202D0144DA8421DD14FF2FF752A40D3
:100910004D894FF6FF7606EA05252A434FF6FF3547
:100920002A408D8806EA05252A434EF6FF752B409E
:100930004DF6FF752B408D8906EA05152B43CD89B1
:1009400006EA05152B4383808483CD88858702843E
:1009500070BD0000002C0140003401400A46002117
:10096000818B4FF6F7731940114381837047000064
:1009700070B5002200230024058C4EF6FF7635402A
:100980000584038C8488828B48F6FF752A404FF6D5
:10099000FF452A400D884FF6FF7606EA05252A43D3
:1009A0004DF6FF752B400D8906EA05352B434D8822
:1009B00006EA05352B430B4DA84202D00A4DA8424A
:1009C00008D14BF6FF752C408D894FF6FF7606EA6D
:1009D00085152C4384808283CD88A0F84050038401
:1009E00070BD0000002C0140003401400A46002187
:1009F000818B4FF2FF7319404FF6FF7303EA022316
:100A00001943818370470021018041808180C1802A
:100A1000018141818181C181704781877047A0F840
:100A200040107047002202881D4B98420ED01D4B8B
:100A300098420BD0B0F1804F08D01B4B984205D0A4
:100A40001A4B984202D01A4B984204D14FF68F733A
:100A50001A404B881A43174B984207D0164B9842BE
:100A600004D04FF6FF431A40CB881A4302808B888C
:100A700083850B8803850A4B98420BD0094B98421B
:100A800008D00E4B984205D00D4B984202D00D4B2A
:100A9000984201D10B7A03860123838270470000BC
:100AA000002C0140003401400004004000080040D8
:100AB000000C0040001000400014004000400140C5
:100AC000004401400048014070B540F225513748CC
:100AD00000F091F8002868D0344800F047F9C4B21B
:100AE0003348007820B101280CD0022852D117E0F9
:100AF000552C06D12F48047001202F4908702C492D
:100B000008704BE0AA2C07D12A48447002202A49D9
:100B100008702749087002E00020254908703DE070
:100B200025490878411C244A117022490C5410466A
:100B3000007807282DDB06211E48FFF784FB0546B9
:100B40001C488679B5421ED10246D27803469B786E
:100B500042EA0320174A5279164B1B7942EA0321D5
:100B6000B0F5487F0EDB40F6980290420ADCB1F502
:100B7000487F07DB914205DC104A1080518001223A
:100B80000E4B1A7100BF00200B490870084908700D
:100B900000BF03E000200649087000BF00BF40F21C
:100BA0002551024800F00CF800BF70BD0044004021
:100BB0002100002019000020200000201400002047
:100BC00010B50022002340F66A14A14200D100BFF4
:100BD0000A1201249440A3B2DC43048010BD21B169
:100BE000828942F40052828104E082894DF6FF73CB
:100BF0001A408281704770B5024600240023002508
:100C0000002040F66A16B14200D100BFC1F3421580
:100C100001F01F03012606FA03F3012D02D1968984
:100C2000334006E0022D02D1168A334001E0968A55
:100C300033400C12012606FA04F41688344013B12E
:100C40000CB1012000E0002070BDF0B50346002487
:100C500000260025002040F66A17B94200D100BFE7
:100C60001846C1F3421401F01F06012707FA06F5E2
:100C7000012C01D10C3004E0022C01D1103000E035
:100C800014301AB107682F43076002E00768AF43CA
:100C90000760F0BD2DE9F04786B005460E460024FA
:100CA000A24600BFA1460027B08900B100BF2F4671
:100CB0002C8A4CF6FF700440F08804432C82AC89E7
:100CC0004EF6F3100440B088318908437189084317
:100CD0000443AC81AC8A4FF6FF400440B089044322
:100CE000AC8201A8FFF752FC1F48874202D1DDF811
:100CF00010A001E0DDF80CA0A88900F4004040B18C
:100D00000AEBCA0000EB0A1031684900B0FBF1F8A9
:100D100007E00AEBCA0000EB0A1031688900B0FB5B
:100D2000F1F86420B8FBF0F004012009642101FB14
:100D30001089A88900F4004040B1322000EBC900BE
:100D4000B0FBF1F000F00700044308E0322000EBB4
:100D500009106421B0FBF1F000F00F0004432C8176
:100D600006B0BDE8F08700000038014001468888E1
:100D7000C0F30800704700BFFEE71CB5FFF75EFB3D
:100D8000FFF788FC40F2DC50FFF7B6FB40F2DC5086
:100D9000FFF7C6FB4FF4FA60FFF764FA38E04FF450
:100DA000FA60FFF7A9FB4FF4FA60FFF7B9FB68465A
:100DB000FFF758FC60B3BDF80000B0F5487F02DAD9
:100DC0004FF4487009E0BDF8000040F698018842F1
:100DD00001DD084601E0BDF800000446BDF8020050
:100DE000B0F5487F02DA4FF4487009E0BDF8020020
:100DF00040F69801884201DD084601E0BDF8020096
:100E000005462046FFF778FB2846FFF789FB00BF21
:100E1000C5E70000340E0008000000202400000098
:100E200028010008580E0008240000206406000075
:100E30004401000800000000010203040102030451
:100E40000607080902040608000000000000000070
:080E500000000000000000009A
:04000005080000ED02
:00000001FF
